:020000040800F2
:10000000AC110020A9080008A5080008A5080008F0
:10001000A5080008A5080008A508000800000000C1
:10002000000000000000000000000000A50800081B
:10003000A508000800000000A5080008A5080008A1
:10004000A5080008A5080008A5080008A5080008DC
:10005000A5080008A5080008F9030008A50800087D
:10006000A5080008A5080008A5080008A5080008BC
:10007000A5080008A5080008A5080008A5080008AC
:10008000A5080008A5080008A5080008A50800089C
:10009000A5080008A5080008A5080008A50800088C
:1000A000A5080008A5080008A5080008A50800087C
:1000B000A5080008A5080008A5080008A50800086C
:1000C000A5080008A5080008A5080008A50800085C
:1000D000A5080008A5080008A5080008A50800084C
:1000E000A5080008A5080008A5080008A50800083C
:1000F000A5080008A5080008A5080008A50800082C
:10010000A5080008A5080008A5080008A50800081B
:10011000A5080008A5080008A5080008A50800080B
:10012000A5080008A5080008A5080008A5080008FB
:10013000A5080008A5080008A5080008A5080008EB
:10014000A5080008A5080008A5080008A5080008DB
:10015000A5080008A5080008A5080008A5080008CB
:10016000A5080008A5080008A5080008A5080008BB
:10017000A5080008A5080008A5080008A5080008AB
:08018000A5080008A50800080D
:1001880010B5054C237833B9044B13B10448AFF3C9
:1001980000800123237010BDB01100200000000072
:1001A800E052000808B5064B1BB106480649AFF3F4
:1001B80000800648036813B1054B03B1984708BD92
:1001C80000000000E0520008B4110020A809002037
:1001D8000000000016202EA1ABBE2D4801680029A2
:1001E80001D1324901608168C268002900D08D467A
:1001F800002A01D002F5807A00218B460F46254857
:10020800254A121A03F08EF903F0F4FA152025A1F5
:10021800ABBE2449002001B40B780131002B15D066
:10022800202BF9D0222B01D0272B01D11A0001E075
:100238002022013902B401300B780131002B05D09E
:100248009A42F9D100224B1E1A70E5E7694602006E
:1002580092006A446B469A4206D9043A14681D68AB
:1002680015601C600433F6E76C460725AC43A546C9
:1002780004000D000948002802D0094803F01EFABE
:1002880003F028F92000290003F0D6F803F012F94A
:1002980004000020B0110020E0120020C53600083C
:1002A800D136000814000020FF000000E0120020F2
:1002B800F0B53D4E87B001A801F022FFD6E904450C
:1002C8004FF0600E01272046294600220023ADF892
:1002D80004E0ADF8067003F053F8002861D020461A
:1002E800294603F089F8039000233048ADF8103010
:1002F80001A901F001FE2D48082101F05FFFD6E9B0
:100308000245002200232046294603F043F800282E
:1003180045D02046294603F06FF80390234801A9E9
:1003280001F02AFE2148082101F050FFD6E90445D2
:10033800002200232046294603F022F840B3002378
:1003480003931A4801A901F05FFE1848082101F03B
:1003580047FFD6E90245002200232046294603F03C
:100368000FF870B10023039301A9104801F092FE21
:1003780008210E4801F03CFF012002F0BDFB07B048
:10038800F0BD204605F1004103F036F80390EBE795
:10039800204605F1004103F02FF80390D1E70390C0
:1003A800BCE70390A0E700BFB81200200008004097
:1003B8000E4A30B4C0F30725148811880B4B490640
:1003C800A4B2F9D52106F7D56AB292B29A80C0B222
:1003D80019881A88054C550689B2F9D50A06F7D541
:1003E80040B280B2A08030BC704700BF00440040DB
:1003F80030B5012087B002F071FB10B301A801F0FD
:100408007FFE01246022002301A941F288350E48AD
:10041800ADF80420ADF81030ADF80640039501F0B2
:100428006BFD0948082101F0C9FE01A9064803959A
:1004380001F0EAFD0448082101F0D2FE204602F04E
:100448005BFB07B030BD00BF0008004030B501209D
:1004580087B0014600F096FD4FF48040012100F07E
:10046800C1FD06A90125002441F8085D12488DF850
:1004780014408DF8174000F003FF2146204602F093
:1004880093FA0C2302A88DF80D3002958DF80C40D4
:100498008DF80E5002F0C2FA0F23062201A88DF83B
:1004A80007508DF804208DF805308DF8063000F0DF
:1004B800C3FB07B030BD00BF0000024010B50D4CB3
:1004C80084B001A801F0A8FC0023B42201A92046A9
:1004D800ADF80430ADF80630029201F04FFC20462A
:1004E800012101F0D5FC2046012101F0F7FC04B000
:1004F80010BD00BF0008004070B5082082B0174D3D
:10050800012100F03FFD0420012100F05FFD0224DD
:10051800032328464FF47042694600268DF80530BB
:1005280000928DF804408DF8066000F0A9FE284678
:1005380022460C2100F042FF284622460D2100F0F9
:100548003DFF284622460E2100F038FF2846224665
:100558000F2100F033FF02B070BD00BF000C024055
:100568002DE9F041012086B001461D4F1D4E00F0D7
:1005780009FD4FF40030012100F028FD0024022578
:10058800042338464FF00108694600938DF805505A
:100598008DF804508DF806408DF8078000F070FE45
:1005A80038462946072200F009FF08234FF4E132B4
:1005B8000DEB030130460292ADF81230ADF80C4055
:1005C800ADF80E40ADF81040ADF8144001F044F914
:1005D8003046414601F0C6F906B0BDE8F08100BFDB
:1005E800000002400044004003783BB1034600206D
:1005F80013F8012F0130002AFAD1704718467047C6
:1006080010B4074B19881A88054C520689B2F9D5D7
:100618000A06F7D580B2A0805DF8044B704700BF8A
:100628000044004010B4064B19881A88044C52063E
:1006380089B2F9D50A06F7D5A0805DF8044B704752
:100648000044004030B404786CB1084B1D4619884A
:100658001A88520689B2FAD50A06F8D5AC8010F87D
:10066800014F002CF3D1002030BC704700440040FB
:10067800037833B10138002200F8012F4378002BAA
:10068800FAD10020704700BF2DE9704FDFF8B0A005
:10069800BAF804B0BAF80250BAF800601BFB0BF0C5
:1006A80084B015FB050002F07FFB04F0A5FC16FBE7
:1006B80006F480461BFB0B40894602F075FB04F0EC
:1006C8009BFCCDE9000115FB054002F06DFB04F031
:1006D80093FCCDE9020130B202F066FB42464B467C
:1006E80002F0F2FC04F0DCFA0022144B02F0C2FB28
:1006F800CAE9020128B202F057FBDDE9002302F043
:10070800E3FC04F0CDFA00220C4B02F0B3FBCAE97B
:1007180004010FFA8BF002F047FB02460B46DDE9B5
:10072800020102F0D1FC04F0BBFA0022034B02F0F4
:10073800A1FBCAE9060104B0BDE8708F000059406A
:10074800B8120020354B36481968002241F00101E3
:1007580019609A60196821F0847121F48031196058
:100768005860196882B021F480211960DA6000921B
:1007780001921A6842F480321A601A4603E0009B1C
:10078800B3F5A06F09D0136803F400330193009BFD
:1007980001330093019B002BF1D0204B1B6813F40D
:1007A800003318BF01230193019B012B05D01D4B7A
:1007B8004FF000629A6002B07047184B1A4A186CE2
:1007C8001A4940F080501864106840F48040106066
:1007D8009A689A609A6842F400429A609A6842F469
:1007E800A0529A6059601A6842F080721A601946DD
:1007F8000B680A4A9B01FBD50D4B40F20561196055
:10080800936823F003039360936843F002039360B3
:10081800936803F00C03082BFAD1C8E700380240AC
:100828001030002400ED00E000700040195440072B
:10083800003C0240154B9A6802F00C02042A23D0AF
:10084800082A09D0124A1149124B8968C1F30311C9
:10085800595CCA401A617047586859685B68420217
:100868004CBF0D4A0A4A01F03F01C3F38813B2FB9B
:10087800F1F202FB03F2054B5B68C3F3014301335A
:100888005B00B2FBF3F2DEE7034ADCE70038024024
:100898000024F4001401002040787D01FEE700BF29
:1008A8000F49104B994210B40BD2C843184420F09A
:1008B80003000D4C04300023E258CA50043383422D
:1008C800FAD10A480A494FF000028842B8BF40F8F6
:1008D800042BFFF6FAAF5DF8044B02F0ADBD00BF84
:1008E80000000020A809002010530008B0110020C3
:1008F800E01200201A4B5878020612D41978194AC7
:1009080001FB00F01080987810F0800F16D1DB788A
:1009180000FB01F0508018061AD403FB01F1918006
:100928007047404219780F4A00F0FF0000FB01F0C1
:1009380040421080987810F0800FE8D0404200F0D4
:10094800FF0000FB01F0DB78404250801806E4D538
:100958005B4203F0FF0303FB01F1494291807047BA
:10096800D8120020B812002010B5102082B0012142
:1009780000F008FB08210023022200910124074807
:100988008DF8044069468DF806308DF807308DF8EB
:10099800052000F075FC02B010BD00BF0010024039
:1009A800034B082208B11A8370475A83704700BF67
:1009B8000010024038B5074C082500F03F00658359
:1009C80040F0800000F014F9552000F011F925835B
:1009D80038BD00BF0010024010B52920FFF7EAFF1C
:1009E800064C60702B20FFF7E5FFA0702D20FFF765
:1009F800E1FFE070BDE81040FFF77CBFD81200208F
:100A080070B5064C08250E4600F03F00658300F0DF
:100A1800EFF8304600F0ECF8258370BD0010024076
:100A28002DE9F041184B194D0024122780461C80EF
:100A38005C809C806C70AC70EC702F70FFF794FF3A
:100A4800134B08221A83032000F040F801280646B9
:100A580002D03046BDE8F0810F20FFF7ABFF3B28FE
:100A680003D026463046BDE8F0812020B8F1000FBB
:100A780005D06721FFF7C4FF48232B70E9E747211A
:100A8800FFF7BEFF2F70E4E7B8120020D81200204D
:100A98000010024050B101280FD0022811D00328BD
:100AA8004FF0210006D01321FFF7AABF01462120ED
:100AB800FFF7A6BF1221FFF7A3BF21201021FFF7E0
:100AC8009FBF21201121FFF79BBF00BF2DE9F043F5
:100AD800444D2E7889B0074636B16878C31B584212
:100AE800584109B0BDE8F0833F4C4FF480500121D4
:100AF80000F078FAA068012100F044FAA069012109
:100B080000F040FAA06A012100F03CFA2068217B3D
:100B1800052200F053FC2069217F052200F04EFCDD
:100B28000DF120080522206A94F82C1000F046FCEC
:100B3800A38848F81C3D4FF0020920688DF80A6028
:100B480041468DF808908DF809908DF80B9000F0CB
:100B580097FBA38A20690193414600F091FBA38C7F
:100B6800206A0193414600F08BFB4FF48273ADF885
:100B78000C60ADF81060ADF80E301FB3012F26D011
:100B8800022F29D00123ADF81290ADF814304FF49C
:100B9800007100220723ADF81610282403A9134872
:100BA800ADF81A20ADF81C30ADF8184000F050FC34
:100BB8000E48012100F0FCFC01206F70287009B07C
:100BC800BDE8F083ADF81270ADF81470DFE7ADF84A
:100BD8001260ADF81470DAE7ADF81270ADF8146071
:100BE800D5E700BFCC1100202801002000300140CB
:100BF80010B504460A48022100F0A0FD0028F9D0EB
:100C08002146074800F060FD0548012100F096FDE7
:100C18000028F9D0024800F053FDC0B210BD00BF53
:100C28000030014040F0BF60024B40F40030D86013
:100C3800704700BF00ED00E0C378F0B463B90378F3
:100C4800194A5909203103F01F03012000FA03F360
:100C580042F82130F0BC7047144B4778DA68857841
:100C680003781149D243C2F30222C2F104040F26C9
:100C7800E4B207FA04F446FA02F2E4B22A40224344
:100C880003F1604303F561431201D2B283F80023F4
:100C98000378012003F01F025B0900FA02F241F811
:100CA8002320F0BC704700BF00E100E000ED00E049
:100CB80021F0604121F07F01014B084398607047A3
:100CC80000ED00E0044B1A6919B922EA0000186126
:100CD800704710431861704700ED00E0044B1A6834
:100CE80004280CBF42F0040222F004021A60704784
:100CF80010E000E00A4B0B481A68002142F001029C
:100D08001A6099601A6822F0847222F480321A609C
:100D180058601A6822F480221A60D960704700BFB0
:100D28000038024010300024024B00221A7018705C
:100D3800704700BF0238024082B000230B4A01937B
:100D480013689B030CD4019B01330193019BB3F5FA
:100D5800A06FF5D1054B1868C0F3404002B070474A
:100D6800019B01330193019BF4E700BF0038024067
:100D7800034B1A6822F0F80242EAC0001860704774
:100D880000380240014B1860704700BF000047421E
:100D9800064B002201281A701A7005D0042802D1C7
:100DA80005221A70704770471870704770380240F3
:100DB800014B1860704700BF800E474230B4029C58
:100DC800064D40EA04605B080143013B41EA821298
:100DD80042EA03436B6030BC704700BF00380240F2
:100DE800014B1860704700BF600047420907034B7A
:100DF80041EA8010C3F88400704700BF0038024001
:100E0800014B1860704700BF68004742014B1860EB
:100E1800704700BF4C004742034B9A6822F0EC62CF
:100E2800114308439860704700380240034B9A68A2
:100E380022F0784211430843986070470038024016
:100E4800034B9A6822F0030210439860704700BF72
:100E580000380240024B986800F00C00704700BF51
:100E680000380240034B9A6822F0F0021043986061
:100E7800704700BF00380240034B9A6822F4E052E2
:100E880010439860704700BF00380240034B9A68CF
:100E980022F4604242EAC00098607047003802407D
:100EA8001F4A936803F00C03042B10B41BD0082BC3
:100EB8001CD01C4B03601A491B4A8C68C4F30314EA
:100EC800145DE34043608C68C4F38224145D23FA04
:100ED80004F4846089685DF8044BC1F34231525CC4
:100EE800D340C3607047114B0360E4E7546851680E
:100EF800526863024CBF0D4B0A4B01F03F01C2F32D
:100F08008812B3FBF1F303FB02F3054A5268C2F3FC
:100F1800014201325200B3FBF2F30360CBE700BF9A
:100F2800003802400024F4005801002040787D0178
:100F380000F44073B3F5407F09D1084A916820F066
:100F4800704321F4F81123F440730B439360034B6F
:100F58001A6FC0F30B00104318677047003802403F
:100F6800014B1860704700BF3C0E4742014B1860A8
:100F7800704700BF400E4742014B1860704700BFE2
:100F88005C014742044B1A6B19B922EA0000186346
:100F9800704710431863704700380240044B5A6B7F
:100FA80019B922EA00005863704710435863704724
:100FB80000380240044B9A6B19B922EA0000986382
:100FC800704710439863704700380240044B1A6C0E
:100FD80019B922EA00001864704710431864704772
:100FE80000380240044B5A6C19B922EA00005864D0
:100FF800704710435864704700380240044B1A6920
:1010080019B922EA00001861704710431861704747
:1010180000380240044B5A6919B922EA00005861A5
:10102800704710435861704700380240044B9A6972
:1010380019B922EA00009861704710439861704717
:1010480000380240044B1A6A19B922EA00001862F3
:10105800704710431862704700380240044B5A6AC0
:1010680019B922EA00005862704710435862704765
:1010780000380240044B1A6D19B922EA00001865BD
:10108800704710431865704700380240044B5A6D8A
:1010980019B922EA0000586570471043586570472F
:1010A80000380240044B9A6D19B922EA000098658D
:1010B800704710439865704700380240044B1A6E19
:1010C80019B922EA0000186670471043186670477D
:1010D80000380240044B5A6E19B922EA00005866DB
:1010E800704710435866704700380240044B1A781E
:1010F80019B922EA00001870704710431870704739
:101108000D3802404309012B0BD0022B094B0CBFB1
:101118001B6F5B6F00F01F0023FA00F000F0010066
:101128007047044B1B6800F01F0023FA00F000F022
:101138000100704700380240024B5A6F42F080723B
:101148005A67704700380240034BDB6818420CBFEF
:1011580000200120704700BF00380240014B187082
:10116800704700BF0E38024008B53C4B984224D067
:101178003B4B98422BD03B4B984232D03A4B98424B
:1011880039D03A4B984240D0394B984247D0394BE6
:1011980098424ED0384B984255D0384B984200D0A0
:1011A80008BD4FF480700121FFF728FF4FF48070CD
:1011B8000021BDE80840FFF721BF01200146FFF7E5
:1011C8001DFF01200021BDE80840FFF717BF0220DE
:1011D8000121FFF713FF02200021BDE80840FFF7B7
:1011E8000DBF04200121FFF709FF04200021BDE8FD
:1011F8000840FFF703BF08200121FFF7FFFE082082
:101208000021BDE80840FFF7F9BE10200121FFF7D3
:10121800F5FE10200021BDE80840FFF7EFBE2020B2
:101228000121FFF7EBFE20200021BDE80840FFF771
:10123800E5BE40200121FFF7E1FE40200021BDE886
:101248000840FFF7DBBE80200121FFF7D7FE802092
:101258000021BDE80840FFF7D1BE00BF00000240F2
:101268000004024000080240000C02400010024046
:101278000014024000180240001C024000200240F6
:1012880000222DE9F00713460E6801274FF00308E6
:1012980004E00133102B02F102022CD007FA03F408
:1012A80004EA0605A542F4D1D0F8009091F804C0EC
:1012B80008FA02F4E44304EA0909C0F80090D0F8F7
:1012C80000900CFA02FA0CF1FF3C4AEA0909BCF159
:1012D800010FC0F8009011D9C56891F807C02C40DB
:1012E800C460C5680CFA02F401332C43102BC460A7
:1012F80002F10202D2D1BDE8F0077047D0F808A089
:1013080091F8059091F806C004EA0A0AC0F808A006
:10131800D0F808A009FA02F949EA0A09C0F80890C1
:10132800D0F8049029EA0505456045680CFA03FCE5
:101338001FFA8CFC4CEA05054560CDE700234FF603
:10134800FF720260037143718371C371704700BFFC
:1013580082B04FF480330193019B0B430193019BAF
:10136800C361C161019BC361C3690193C3690193EF
:1013780002B07047036919420CBF00200120704772
:10138800006980B2704700BF436919420CBF002052
:1013980001207047406980B2704700BF01837047E1
:1013A800418370470AB9418370470183704700BF82
:1013B800416170474369594041617047CB0800EB70
:1013C800830001F0070110B48900046A0F238B40E1
:1013D80024EA03030362036A5DF8044B8A4013435B
:1013E8000362704708B5174B984212D0164B9842C3
:1013F8001BD0164B984200D008BD4FF40040012185
:10140800FFF720FE4FF400400021BDE80840FFF739
:1014180019BE4FF480500121FFF720FE4FF4805091
:101428000021BDE80840FFF719BE4FF480400121B4
:10143800FFF708FE4FF480400021BDE80840FFF7A1
:1014480001BE00BF0030014000380040003C0040B1
:101458002DE9F007B1F802A0B1F80090B1F80480C6
:101468000F894E898D89CC89B1F806C00A8A03880C
:101478004AEA090141EA080141EA0C0139433143CA
:101488002943214303F441530B439BB20380838BCD
:1014980023F400631B041B0C8383BDE8F00702825E
:1014A800704700BF838B8A6823F47B6323F00F03A4
:1014B8001B042DE9F0031B0C022483830484B0F879
:1014C8001CC0A2421FFA8CFC52D02B4B8C889D6802
:1014D800002C0CBF4FF001084FF002082D0242D437
:1014E800254BDFF89C90D3F88450D3F884605F686C
:1014F800CB8807F03F07C5F38815B9FBF7F7B3F5B5
:10150800007FC6F3027605FB07F5B5FBF6F516BFB7
:101518004FEA48182D0AB5FBF8F505EB85056D006F
:10152800B5FBF2F20532154D92B2A5FB0262D20864
:101538005508AE1E02F00102FD2E94BF45EA0222B4
:1015480002220F884E888D894CEA070141F4006118
:1015580031432943134389B20C439BB203848483E8
:10156800BDE8F00370479D6825F400059D60B7E766
:101578008C88CB88E5E700BF00380240CDCCCCCCC6
:1015880040787D0100230722028203804380838004
:10159800C380038143818381C38170470023022272
:1015A8008260038043808380C3808381704700BF4B
:1015B800038829B923F040031B041B0C03807047E0
:1015C8009BB243F040030380704700BF838B29B967
:1015D80023F480631B041B0C838370479BB243F482
:1015E80080638383704700BF038823F400631B0470
:1015F8001B0C038003889BB219430180704700BF0E
:10160800B1F5804F038805D023F480431B041B0CDD
:10161800038070479BB243F480430380704700BF48
:101628004FF6FF639942038804D09BB243F480735A
:101638000380704723F480731B041B0C03807047DE
:10164800838829B923F004031B041B0C838070478B
:101658009BB243F004038380704700BF838829B995
:1016680023F010031B041B0C838070479BB243F0CC
:1016780010038380704700BF838B23F47B6323F0C0
:101688000F031B0402221B0C83830284838B0A88AA
:1016980030B44D888C8889899BB22B4343F400630E
:1016A80022F40072234392B20B43002A9BB214BF68
:1016B80000224FF480721343838330BC704700BF0D
:1016C800808980B2704700BF81817047038829B93B
:1016D80023F400531B041B0C038070479BB243F494
:1016E80000530380704700BF03889BB243F48053C4
:1016F80003807047012914BF008B808A80B270472D
:10170800008A80B2704700BF83889BB21AB923EA67
:1017180001018180704719438180704701230909BD
:1017280003FA01F1838889B29BB21AB923EA01014D
:101738008180704719438180704700BF038919422F
:101748000CBF002001207047C94389B2018170474E
:1017580010B48488008901F00F03012280B202FAD4
:1017680003F31840A4B205D009098A4014420CBFFB
:10177800002001205DF8044B704700BF01F00F0105
:10178800012303FA01F1C94389B20181704700BFFF
:1017980008B52B4B984219D02A4B984220D02A4B97
:1017A800984229D0294B984232D0294B98423BD0B5
:1017B800284B984200D008BD20200121FFF74EFC9D
:1017C80020200021BDE80840FFF748BC1020012177
:1017D800FFF744FC10200021BDE80840FFF73EBC9D
:1017E8004FF400300121FFF72DFC4FF400300021A9
:1017F800BDE80840FFF726BC4FF480200121FFF721
:1018080021FC4FF480200021BDE80840FFF71ABCF6
:101818004FF400200121FFF715FC4FF400200021B0
:10182800BDE80840FFF70EBC4FF480100121FFF718
:1018380009FC4FF480100021BDE80840FFF702BC06
:10184800001001400044004000480040004C0040A7
:101858000050004000140140F0B50D46018AEF88A1
:101868002E89AB88AA8989B2044621F440513943AC
:1018780068892182A189334389B2034321F4B05195
:1018880021F00C019BB20B43A381A38A9BB223F4E2
:101898004073134385B0A3826846FFF701FB1D4BD5
:1018A8009C4229D003F580639C4225D0029BA289E3
:1018B8002968A08912B2002A03EB8303B4BF490048
:1018C800890003EB8303B3FBF1F2134900B2A1FBD8
:1018D80002535B096425002803FB15224FEA031312
:1018E8000CDB12013232A1FB0251C1F343110B434D
:1018F8009BB2238105B0F0BD039BD8E7D2003232FA
:10190800A1FB0201C1F342110B439BB2238105B035
:10191800F0BD00BF001001401F85EB5100234FF4BC
:1019280016510C22016042818380C3800381838128
:10193800704700BF30B40A884D888C88038AC988EC
:101948002A4322430A439BB292B223F4706313439F
:10195800038230BC704700BF00230380438083802C
:10196800C3807047838929B923F400531B041B0CD7
:10197800838170479BB243F400538381704700BF53
:10198800038B03F47F430383038B9BB219430183C7
:10199800704700BF838919B9C3F30E038381704769
:1019A8006FEA43436FEA53439BB28381704700BF9A
:1019B800838A29B923F400631B041B0C83827047B4
:1019C8009BB243F400638382704700BFC1F30801F0
:1019D800818070478088C0F308007047038A23F02D
:1019E8000F031B041B0C0382038A9BB21943018259
:1019F800704700BF838929B923F002031B041B0C1D
:101A0800838170479BB243F002038381704700BF14
:101A1800838923F400631B041B0C838183899BB295
:101A280019438181704700BF038A23F020031B04F8
:101A38001B0C0382038A9BB219430182704700BFC3
:101A4800038A29B923F480431B041B0C03827047C3
:101A58009BB243F480430382704700BF83899BB2E3
:101A680043F0010383817047838A29B923F008036F
:101A78001B041B0C838270479BB243F008038382CC
:101A8800704700BF038BDBB20383038B9BB243EA2F
:101A980001210183704700BF838A29B923F02003FD
:101AA8001B041B0C838270479BB243F02003838284
:101AB800704700BF838A29B923F010031B041B0C4D
:101AC800838270479BB243F010038382704700BF44
:101AD800838A23F004031B041B0C8382838A9BB232
:101AE80019438182704700BF838A29B923F0020312
:101AF8001B041B0C838270479BB243F00203838252
:101B0800704700BF838A9BB21AB923EA0101818218
:101B1800704719438182704701F01F0310B4C1F365
:101B280042110124A14204FA03F310D002290CBF88
:101B38001030143004682AB924EA030303605DF8FE
:101B4800044B7047234303605DF8044B70470C3027
:101B5800F0E700BF038819420CBF0020012070473E
:101B6800C94389B20180704710B4C1F342130124FC
:101B780001F01F02A34204FA02F217D0022B0CBF95
:101B8800038A838A9BB21340028892B253B1090A2E
:101B9800012303FA01F111420CBF002001205DF876
:101BA800044B704718465DF8044B704783899BB215
:101BB8001340E9E7090A012303FA01F1C94389B28D
:101BC8000180704708B5604B984235D0B0F1804F1E
:101BD8003CD05E4B984243D05D4B98424AD05D4B17
:101BE800984251D05C4B984258D05C4B98425FD099
:101BF8005B4B984266D05B4B98426DD05A4B9842EB
:101C080076D05A4B98427FD0594B984200F0888042
:101C1800584B984200F08E80574B984200D008BD30
:101C28004FF480700121FFF70DFA4FF48070002106
:101C3800BDE80840FFF706BA01200146FFF70EFA93
:101C480001200021BDE80840FFF708BA012001463D
:101C5800FFF7F8F901200021BDE80840FFF7F2B9C5
:101C680002200121FFF7EEF902200021BDE808401B
:101C7800FFF7E8B904200121FFF7E4F90420002167
:101C8800BDE80840FFF7DEB908200121FFF7DAF9BF
:101C980008200021BDE80840FFF7D4B91020012131
:101CA800FFF7D0F910200021BDE80840FFF7CAB9B6
:101CB80020200121FFF7C6F920200021BDE80840B7
:101CC800FFF7C0B902200121FFF7C8F9022000215F
:101CD800BDE80840FFF7C2B94FF480300121FFF793
:101CE800BDF94FF480300021BDE80840FFF7B6B9D0
:101CF8004FF400300121FFF7B1F94FF40030002113
:101D0800BDE80840FFF7AAB94FF480200121FFF78A
:101D1800A5F94FF480200021BDE80840FFF79EB9DF
:101D280040200121FFF78EF940200021BDE808403E
:101D3800FFF788B980200121FFF784F9802000216E
:101D4800BDE80840FFF77EB90000014000040040EC
:101D580000080040000C0040001000400014004043
:101D68000004014000400140004401400048014097
:101D780000180040001C004000200040234A03884F
:101D8800904270B49BB212D002F5806290420ED09D
:101D9800B0F1804F0BD0A2F58032904207D002F507
:101DA8008062904203D002F58062904203D14A8853
:101DB80023F070031343164A90421ED002F5806246
:101DC80090421AD00E894D680C8823F4407302F5AE
:101DD8006C429BB2334390420380C562048506D0AF
:101DE8000C4B984203D00123838270BC70478B7AD6
:101DF80003860123838270BC704703800B884A687E
:101E0800C26203850123838270BC704700000140D1
:101E1800001000400004014000234FF0FF324260F0
:101E28000380038143808372704700BF01858282EB
:101E3800704700BF038823F070031B041B0C194371
:101E48000180704741627047C1627047406A7047BD
:101E5800008D80B2704700BF038829B923F00203C0
:101E68001B041B0C038070479BB243F002030380E2
:101E7800704700BF038829B923F004031B041B0C17
:101E8800038070479BB243F004030380704700BF90
:101E9800038829B923F080031B041B0C03807047B7
:101EA8009BB243F080030380704700BF038823F090
:101EB80008031B041B0C038003889BB21943018091
:101EC800704700BF038823F440731B041B0C038076
:101ED80003889BB219430180704700BF038829B962
:101EE80023F001031B041B0C038070479BB243F0D3
:101EF80001030380704700BFF0B4048CB1F802C03E
:101F08008F890E881B4D24F001042404240C0484BA
:101F1800028C8488038B22F0020223F073031204DC
:101F28004CEA07071B04120CBFB21B0CA84247EA75
:101F38000202A4B243EA06030AD005F58065A84266
:101F480006D0896884800383F0BC416302847047AB
:101F5800B1F80EC04F8A0D8A8E8822F0080242EA34
:101F68000C023D4324F4407422F00402ADB2324323
:101F78002C43E6E700000140F0B4048CB1F80CC033
:101F88004F880E881F4D24F010042404240C048468
:101F9800028C8488038B22F02002120423F4E64387
:101FA800120C1B0442EA0C121B0C42EA071243EA09
:101FB8000623A84292B2A4B29BB20AD005F5806566
:101FC800A84206D0896884800383F0BC81630284B8
:101FD8007047CD89B1F810C08F884E8A22F08002F0
:101FE80092B242EA051224F440644FF6BF751540D8
:101FF80044EA8C0445EA071244EA860492B2A4B281
:10200800E0E700BF00000140F0B4048CB1F80CC058
:102018004F880E881E4D24F480742404240C0484F4
:10202800028C8488838B22F400721204120C23F031
:10203800730342EA0C221B0442EA07221B0CA84243
:1020480092B2A4B243EA06030AD005F58065A84215
:1020580006D0896884808383F0BCC163028470479A
:10206800CD89B1F810C08F884E8A22F4006292B2EE
:1020780042EA052224F440544FF6FF35154044EA5D
:102088000C1445EA072244EA061492B2A4B2E0E727
:1020980000000140F0B4048CB1F80CC04F880E88E1
:1020A800164D24F480542404240C0484028C84885F
:1020B800838B22F40052120423F4E643120C1B040F
:1020C80042EA0C321B0C42EA073243EA0623A842D2
:1020D80092B2A4B29BB20AD005F58065A84206D098
:1020E800896884808383F0BC0164028470470D8A08
:1020F80024F4804444EA8514A4B2F1E700000140C6
:10210800002303804380838083608381C3810382AB
:1021180043827047038C10B401249BB28C4023EA9D
:10212800040421F00803048418307BB10439C1F396
:102138004E0148F6FF730C5823400B5012020B58FF
:102148005DF8044B92B21A430A50704749084FF69B
:102158008F7344582340435043585DF8044B1A4347
:10216800425070474163704781637047C16370474D
:1021780001647047038B23F070031B041B0C194385
:1021880001837047038B23F4E0431B041B0C43EAD1
:1021980001218BB203837047838B23F070031B04E8
:1021A8001B0C194381837047838B23F4E0431B0482
:1021B8001B0C43EA01218BB283837047038B23F006
:1021C80008031B041B0C194301837047038B23F47A
:1021D80000631B041B0C43EA01218BB20383704785
:1021E800838B23F008031B041B0C1943818370475E
:1021F800838B23F400631B041B0C43EA01218BB27D
:1022080083837047038B23F004031B041B0C1943BF
:1022180001837047038B23F480631B041B0C43EA80
:1022280001218BB203837047838B23F004031B04C3
:102238001B0C194381837047838B23F480631B0431
:102248001B0C43EA01218BB283837047038B23F075
:1022580080031B041B0C194301837047038BC3F3D2
:102268000E0343EA01218BB203837047838B23F06B
:1022780080031B041B0C194381837047838BC3F3B2
:102288000E0343EA01218BB283837047038C23F04A
:1022980002031B041B0C194301847047038C23F0B1
:1022A80008031B041B0C194301847047038C23F09B
:1022B80020031B041B0C43EA01118BB203847047F3
:1022C800038C23F080031B041B0C43EA01118BB21F
:1022D80003847047038C23F400731B041B0C43EA2C
:1022E80001218BB203847047038C23F400631B0421
:1022F8001B0C43EA01218BB203847047038C23F43F
:1023080000531B041B0C43EA01318BB20384704752
:10231800038C10B401248C409BB223EA0403038489
:10232800038C5DF8044B8A4013439BB203847047C7
:10233800038C10B404248C409BB223EA0403038466
:10234800038C5DF8044B8A4013439BB203847047A7
:102358000B88F0B4002B32D0042B58D0082B038CF8
:1023680000F083804E888F880D89CC8823F48051B3
:102378000904090C0184828B038C22F4407223F433
:10238800005312055B04120D5B0C42EA072243EA74
:10239800063342EA05329BB243F4805392B28283F9
:1023A8000384838B23F440631B041B0C8383838B7C
:1023B8009BB243EA04239BB28383F0BC7047028C30
:1023C8008D880E894C88C98822F001021204120CEB
:1023D8000284028B038C92B222F0F30223F00A03E8
:1023E80042EA06121B0444F0010492B21B0C234378
:1023F8002A4302830384038B23F00C031B041B0C66
:102408000383038B9BB20B430383F0BC7047028C9E
:102418004E888C880F89C98822F010021204120C89
:102428000284038B058C23F440731B051B0DADB28E
:1024380043EA073225F0A00545EA061392B242EABC
:1024480004229BB243F0100392B202830384038BED
:1024580023F440631B041B0C0383038B9BB243EAE6
:1024680001239BB20383F0BC704723F480731B04E1
:102478001B0C4D888C880E89CA880384818B038C39
:1024880089B29BB221F0F30123F4206341EA0611DB
:1024980043EA052389B29BB243F4807321438183C5
:1024A8000384838B23F00C031B041B0C8383838B13
:1024B8009BB21343838380E7002301228280038039
:1024C8004380C38003817047F0B44D888C880B88A3
:1024D800B1F808C0028CC988002D14BF0026022656
:1024E800012C14BF01270227002B4BD022F0100229
:1024F8001204120C0284038B028C23F440731B0514
:102508001B0D92B243EA0C3322F0A0029BB242EABE
:10251800051543EA0424ADB2A4B245F010050483BE
:102528000584038B23F440631B041B0C0383038B78
:102538009BB243EA01239BB20383038C23F001037C
:102548001B041B0C0384028B038C92B222F0F3024F
:102558009BB242EA0C1C23F00A0343F001031FFA62
:102568008CFC1E434CEA070707830684038B23F081
:102578000C031B041B0C0383038B9BB219430183BD
:10258800F0BC704722F001021204120C0284038B83
:10259800028C9BB223F0F30322F00A0243EA0C13E5
:1025A800120445F001059BB2120C1C432A43048314
:1025B8000284028B22F00C021204120C0283038B99
:1025C8009BB20B430383028C22F010021204120CFC
:1025D8000284038B028C23F440731B051B0D92B2FB
:1025E80043EA0C3322F0A0029BB242F0100243EA05
:1025F800072742EA061607830684038B23F4406301
:102608001B041B0C0383038B9BB243EA012189B291
:102618000183F0BC704700BF406B7047806B704708
:10262800C06B7047006C7047038B23F00C031B04CE
:102638001B0C0383038B9BB219430183704700BFB4
:10264800038B23F440631B041B0C0383038B9BB293
:1026580043EA01218BB20383704700BF838B23F0C9
:102668000C031B041B0C8383838B9BB2194381834C
:10267800704700BF838B23F440631B041B0C8383C8
:10268800838B9BB243EA01218BB28383704700BFDF
:10269800B1F802C00B888A89F0B48F88CE880D897A
:1026A8004C894CEA03033B4333432B4323431343F3
:1026B8009BB2A0F84430F0BC704700BF00230380F1
:1026C80043808380C380038143818381704700BF37
:1026D800B0F8443021B9C3F30E03A0F84430704772
:1026E8006FEA43436FEA53439BB2A0F84430704704
:1026F800838829B923F004031B041B0C83807047CB
:102708009BB243F004038380704700BF838829B9D4
:1027180023F001031B041B0C838070479BB243F01A
:1027280001038380704700BF83899BB21AB923EAEB
:102738000101818170471943818170478182704707
:10274800038A19420CBF002001207047C94389B28F
:1027580001827047038A828911EA030092B203D08A
:1027680011420CBF00200120704700BFC94389B245
:10277800018270470A43A0F84820704783899BB2BA
:102788001AB923EA01018181704719438181704791
:10279800838829B923F008031B041B0C8380704726
:1027A8009BB243F008038380704700BF038923F07E
:1027B80007031B041B0C0381704700BF038923F028
:1027C80070031B041B0C1943018103899BB243F05E
:1027D80007030381704700BF602930B4048C24D0FC
:1027E80024F001042404240C0484058B048CADB269
:1027F80025F0F305A4B245F0010524F00A0445EAE2
:10280800031344F001049BB2224303830284038927
:1028180023F070031B041B0C0B43038103899BB239
:1028280043F00703038130BC704724F010042404EC
:10283800240C0484048B058C24F440742405ADB264
:10284800240D25F0A00544F4807445F0100544EAF1
:10285800033345EA02129BB292B203830284D6E79D
:1028680010B4048942EA0323E4B223439BB2194318
:10287800018103895DF8044B23F077031B041B0CCB
:1028880043F077030381704710B4048942EA0323B5
:10289800E4B223439BB21943018103895DF8044BD9
:1028A8009BB243F480430381704700BF038923F040
:1028B80070031B041B0C194301817047838823F0A4
:1028C80070031B041B0C838083889BB2194381808F
:1028D800704700BF038923F007031B041B0C038107
:1028E80003899BB219430181704700BF038923F014
:1028F80080031B041B0C038103899BB219430181CC
:10290800704700BF10B40489E4B221430A4342EA85
:1029180003239CB204815DF8044B704770B40589A9
:10292800048B068C24F4407424F00304B6B226F019
:10293800220625F00705240432432D04240C2D0C0F
:1029480044F4807442EA0313294344F001049EB21C
:1029580001810483068470BC704700BF838829B94D
:1029680023F080031B041B0C838070479BB243F049
:1029780080038380704700BFA0F85010704700BFE5
:1029880008B54FF480400121FEF768FB4FF4804002
:102998000021BDE80840FEF761BB00BF014B18608D
:1029A800704700BF0038014001F0FC0303F1804389
:1029B80003F59C3301F0030110B489009C680F22D1
:1029C8008A4024EA02029A609A685DF8044B8840BB
:1029D80002439A60704700BF014B1860704700BF00
:1029E800DC002742014B1860704700BF00042742F3
:1029F800024B186AC0F30020704700BF003801403E
:102A0800044B054900221A605A609A60DA605961DD
:102A1800704700BF003C0140FFFF7F00837970B41E
:102A28002BB31D4B01681E6802794579CC432640BB
:102A38001E605E6802F1804202F59E3234405C609E
:102A480014682143116002689868D143084098606F
:102A5800D868102D01EA0001D96014D005F180432F
:102A680003F59E3370BC19680A431A6070470379EE
:102A7800016803F1804303F59E3370BC1A6822EAAB
:102A880001021A607047996811439960D9680A432E
:102A9800DA6070BC704700BF003C014000230C2284
:102AA8004271036003718371704700BF024B1A695A
:102AB80010431861704700BF003C0140034B5B693D
:102AC80018420CBF00200120704700BF003C0140A5
:102AD800014B5861704700BF003C0140054B1A6824
:102AE8005B69034004D010420CBF002001207047EE
:102AF80018467047003C0140014B5861704700BFC1
:102B0800003C014081F0004102E000BF83F0004337
:102B180030B54FEA41044FEA430594EA050F08BF70
:102B280090EA020F1FBF54EA000C55EA020C7FEA34
:102B3800645C7FEA655C00F0E2804FEA5454D4EBB1
:102B48005555B8BF6D420CDD2C4480EA020281EA7B
:102B5800030382EA000083EA010180EA020281EAB3
:102B68000303362D88BF30BD11F0004F4FEA013105
:102B78004FF4801C4CEA113102D0404261EB410114
:102B880013F0004F4FEA03334CEA133302D052429A
:102B980063EB430394EA050F00F0A780A4F1010456
:102BA800D5F1200E0DDB02FA0EFC22FA05F2801890
:102BB80041F1000103FA0EF2801843FA05F3594176
:102BC8000EE0A5F120050EF1200E012A03FA0EFCF5
:102BD80028BF4CF0020C43FA05F3C01851EBE3711F
:102BE80001F0004507D54FF0000EDCF1000C7EEB3C
:102BF80000006EEB0101B1F5801F1BD3B1F5001F7A
:102C08000CD349085FEA30004FEA3C0C04F1010498
:102C18004FEA445212F5800F80F09A80BCF1004FC1
:102C280008BF5FEA500C50F1000041EB045141EA43
:102C3800050130BD5FEA4C0C404141EB010111F444
:102C4800801FA4F10104E9D191F0000F04BF0146EF
:102C58000020B1FA81F308BF2033A3F10B03B3F1CD
:102C680020020CDA0C3208DD02F1140CC2F10C025D
:102C780001FA0CF021FA02F10CE002F11402D8BFBB
:102C8800C2F1200C01FA02F120FA0CFCDCBF41EA87
:102C98000C019040E41AA2BF01EB0451294330BD56
:102CA8006FEA04041F3C1CDA0C340EDC04F1140433
:102CB800C4F1200220FA04F001FA02F340EA03000A
:102CC80021FA04F345EA030130BDC4F10C04C4F150
:102CD800200220FA02F001FA04F340EA0300294630
:102CE80030BD21FA04F0294630BD94F0000F83F47A
:102CF800801306BF81F480110134013D4EE77FEA5D
:102D0800645C18BF7FEA655C29D094EA050F08BFA8
:102D180090EA020F05D054EA000C04BF1946104689
:102D280030BD91EA030F1EBF0021002030BD5FEACD
:102D3800545C05D14000494128BF41F0004130BDF5
:102D480014F580043CBF01F5801130BD01F0004549
:102D580045F0FE4141F470014FF0000030BD7FEABC
:102D6800645C1ABF194610467FEA655C1CBF0B46B7
:102D7800024650EA013406BF52EA033591EA030FCE
:102D880041F4002130BD00BF90F0000F04BF0021C6
:102D9800704730B54FF4806404F132044FF00005F9
:102DA8004FF0000150E700BF90F0000F04BF002172
:102DB800704730B54FF4806404F1320410F00045D8
:102DC80048BF40424FF000013EE700BF42004FEAD3
:102DD800E2014FEA31014FEA02701FBF12F07F4350
:102DE80093F07F4F81F06051704792F0000F14BF4D
:102DF80093F07F4F704730B54FF4607401F0004591
:102E080021F0004120E700BF50EA010208BF7047E7
:102E180030B54FF000050AE050EA010208BF7047DC
:102E280030B511F0004502D5404261EB41014FF445
:102E3800806404F132045FEA915C3FF4DCAE4FF049
:102E480003025FEADC0C18BF03325FEADC0C18BF30
:102E5800033202EBDC02C2F1200300FA03FC20FA81
:102E680002F001FA03FE40EA0E0021FA02F11444CE
:102E7800C1E600BF70B54FF0FF0C4CF4E06C1CEAE3
:102E880011541DBF1CEA135594EA0C0F95EA0C0F58
:102E980000F0DEF82C4481EA030621EA4C5123EACB
:102EA8004C5350EA013518BF52EA033541F48011FA
:102EB80043F4801338D0A0FB02CE4FF00005E1FBAD
:102EC80002E506F00042E0FB03E54FF00006E1FBF7
:102ED80003569CF0000F18BF4EF0010EA4F1FF043A
:102EE800B6F5007F64F5407404D25FEA4E0E6D417A
:102EF80046EB060642EAC62141EA55514FEAC5208B
:102F080040EA5E504FEACE2EB4F1FD0C88BFBCF506
:102F1800E06F1ED8BEF1004F08BF5FEA500E50F1B7
:102F2800000041EB045170BD06F0004646EA01017D
:102F380040EA020081EA0301B4EB5C04C2BFD4EBAF
:102F48000C0541EA045170BD41F480114FF0000EA8
:102F5800013C00F3AB8014F1360FDEBF002001F016
:102F6800004170BDC4F10004203C35DA0C341BDC90
:102F780004F11404C4F1200500FA05F320FA04F062
:102F880001FA05F240EA020001F0004221F0004196
:102F980010EBD37021FA04F642EB06015EEA430E09
:102FA80008BF20EAD37070BDC4F10C04C4F1200539
:102FB80000FA04F320FA05F001FA04F240EA0200EC
:102FC80001F0004110EBD37041F100015EEA430EBD
:102FD80008BF20EAD37070BDC4F1200500FA05F2DD
:102FE8004EEA020E20FA04F301FA05F243EA02035C
:102FF80021FA04F001F0004121FA04F220EA02006B
:1030080000EBD3705EEA430E08BF20EAD37070BDB0
:1030180094F0000F0FD101F00046400041EB010190
:1030280011F4801F08BF013CF7D041EA060195F072
:10303800000F18BF704703F00046520043EB03032C
:1030480013F4801F08BF013DF7D043EA0603704719
:1030580094EA0C0F0CEA135518BF95EA0C0F0CD024
:1030680050EA410618BF52EA4306D1D181EA03016A
:1030780001F000414FF0000070BD50EA410606BF64
:103088001046194652EA430619D094EA0C0F02D1A9
:1030980050EA013613D195EA0C0F05D152EA0336EE
:1030A8001CBF104619460AD181EA030101F000410C
:1030B80041F0FE4141F470014FF0000070BD41F055
:1030C800FE4141F4780170BD70B54FF0FF0C4CF42F
:1030D800E06C1CEA11541DBF1CEA135594EA0C0F4E
:1030E80095EA0C0F00F0A7F8A4EB050481EA030E9B
:1030F80052EA03354FEA013100F088804FEA033382
:103108004FF0805545EA131343EA12634FEA02224F
:1031180045EA111545EA10654FEA00260EF0004110
:103128009D4208BF964244F1FD0404F5407402D262
:103138005B084FEA3202B61A65EB03055B084FEAF3
:1031480032024FF480104FF4002CB6EB020E75EBF0
:10315800030E22BFB61A754640EA0C005B084FEA18
:103168003202B6EB020E75EB030E22BFB61A754695
:1031780040EA5C005B084FEA3202B6EB020E75EBE0
:10318800030E22BFB61A754640EA9C005B084FEA58
:103198003202B6EB020E75EB030E22BFB61A754665
:1031A80040EADC0055EA060E18D04FEA051545EA54
:1031B80016754FEA06164FEAC30343EA52734FEAFD
:1031C800C2025FEA1C1CC0D111F4801F0BD141EA76
:1031D80000014FF000004FF0004CB6E711F4801FDB
:1031E80004BF01430020B4F1FD0C88BFBCF5E06FBB
:1031F8003FF6AFAEB5EB030C04BFB6EB020C5FEACB
:10320800500C50F1000041EB045170BD0EF0004E1F
:103218004EEA113114EB5C04C2BFD4EB0C0541EA51
:10322800045170BD41F480114FF0000E013C90E64E
:1032380045EA060E8DE60CEA135594EA0C0F08BF12
:1032480095EA0C0F3FF43BAF94EA0C0F0AD150EA11
:1032580001347FF434AF95EA0C0F7FF425AF1046A4
:1032680019462CE795EA0C0F06D152EA03353FF4CC
:10327800FDAE1046194622E750EA410618BF52EA49
:1032880043067FF4C5AE50EA41047FF40DAF52EA1D
:1032980043057FF4EBAE12E74FF0FF3C06E000BFBA
:1032A8004FF0010C02E000BF4FF0010C4DF804CDC7
:1032B8004FEA410C7FEA6C5C4FEA430C18BF7FEA87
:1032C8006C5C1BD001B050EA410C0CBF52EA430CB5
:1032D80091EA030F02BF90EA020F0020704710F135
:1032E800000F91EA030F58BF994208BF90422CBFC4
:1032F800D8176FEAE37040F0010070474FEA410CBD
:103308007FEA6C5C02D150EA013C07D14FEA430CDA
:103318007FEA6C5CD6D152EA033CD3D05DF8040B4B
:10332800704700BF8446104662468C46194663467D
:1033380000E000BF01B5FFF7B7FF002848BF10F154
:10334800000F01BD4DF808EDFFF7F4FF0CBF012099
:1033580000205DF808FB00BF4DF808EDFFF7EAFF15
:1033680034BF012000205DF808FB00BF4DF808EDD0
:10337800FFF7E0FF94BF012000205DF808FB00BFC5
:103388004DF808EDFFF7CEFF94BF012000205DF84F
:1033980008FB00BF4DF808EDFFF7C4FF34BF01205C
:1033A80000205DF808FB00BF4FEA410212F5001249
:1033B80015D211D56FF47873B3EB625212D94FEA74
:1033C800C12343F0004343EA505311F0004F23FA5E
:1033D80002F018BF404270474FF00000704750EAB3
:1033E800013005D111F0004008BF6FF00040704770
:1033F8004FF00000704700BF4A0011D212F50012CA
:1034080011D20DD56FF47873B3EB62520ED44FEA34
:10341800C12343F0004343EA505323FA02F07047B4
:103428004FF00000704750EA013002D14FF0FF30F2
:1034380070474FF00000704708B5FDF791F8194B39
:10344800194C8A221A810120FDF7EAFAFDF754F88F
:10345800FCF7FCFFFDF732F8FDF7BEFAFDF714F9AB
:10346800FCF726FF1148FDF7EDF8D4E90201FFF754
:103478009BFF00B2FCF79CFF0D48FDF7E3F8D4E989
:103488000401FFF791FF00B2FCF792FF0848FDF72F
:10349800D9F8D4E90601FFF787FF00B2FCF788FFE7
:1034A800DAE700BF00440040B8120020805200084C
:1034B8008452000808B50021044600F087F8044B40
:1034C8001868C36B03B19847204601F013FF00BF8B
:1034D8008C52000870B50F4E0F4D761BB61007D0F2
:1034E800043D0024013455F8043F9847A642F9D119
:1034F8000A4E0B4D761B01F0F1FEB61008D0043DC4
:103508000024013455F8043F9847A642F9D170BD0C
:1035180070BD00BF04530008045300080C53000892
:1035280004530008F0B4840743D0541E002A3ED048
:10353800CDB2034603E0621E002C38D0144603F8CF
:10354800015B9A07F7D1032C2AD9CDB245EA0525A4
:103558000F2C45EA054515D9A4F110073F0903F1D9
:10356800100606EB07161A46156055609560D5607B
:103578001032B242F8D104F00F040137032C03EBE8
:1035880007130DD91E462246043A032A46F8045B5F
:10359800FAD8221F22F003020432134404F0030471
:1035A8002CB1C9B21C4403F8011BA342FBD1F0BCE7
:1035B800704714460346C6E7024B13B1024800F0B1
:1035C8007DB8704700000000D13600082DE9F04FA3
:1035D800384B1B6885B003F5A472019302900F461F
:1035E8000392019BD3F84881B8F1000F1CD0DDF895
:1035F8000CB04FF00109DA46D8F804305C1E11D43B
:1036080008F188059E1C05EB830508EB860677B153
:10361800EB6FBB420BD0013C631CA5F10405A6F17E
:103628000406F4D1244A7ABB05B0BDE8F08FD8F877
:10363800042056F8043C013AA24216BF0022C8F8FA
:10364800044046F8042C002BE5D0D8F88811D8F8A7
:1036580004B009FA04F20A4210D0D8F88C110A42D0
:103668000ED1029855F8041C9847D8F804305B45E9
:10367800B7D1DAF800304345CDD0B2E79847F4E740
:1036880055F8040C9847F0E7D8F804306BB9D8F827
:10369800003063B14046CAF80030AFF30080DAF872
:1036A8000080B8F1000FA7D1BEE7D8F80030C246B5
:1036B8009846F6E78C5200080000000001460020FA
:1036C8000246034600F018B838B5094D094C641B8A
:1036D800A41018BF05EB840505D0013C55F8043D3E
:1036E8009847002CF9D1BDE8384001F0FDBD00BF76
:1036F8000C53000810530008F0B5274C2668D6F87C
:10370800484185B00746002C41D065681F2D1EDD55
:10371800224818B94FF0FF3005B0F0BD4FF4C8701B
:10372800039102920193AFF300800399029A019BDF
:1037380004460028EED0D6F8485125600020606085
:103748000546C6F84841C4F88801C4F88C013FB959
:10375800AB1C00200135656044F8231005B0F0BDAE
:1037680004EB85004FF0010CC0F88820D4F888617C
:103778000CFA05F21643022FC4F88861C0F8083124
:10378800E6D1D4F88C311A43C4F88C21E0E706F569
:10379800A674C6F84841B8E78C520008000000003B
:1037A8000B4B1B6810B504460BB19A6B4AB1132C2E
:1037B8000CD8084850F83430013307D000EBC40067
:1037C80010BD184600F040FB132CF2D9002010BDA4
:1037D80090050020E011002070B500F003FB1325D0
:1037E8000446002628463146ABBE05464FF0FF305A
:1037F800256070BD2DE9F04784B0DFF89480CDF8DE
:1038080004800326002303960124029301AD204679
:103818002946ABBE81461B4FCDF80480042303968E
:10382800C7F80090029320462946ABBE8246DFF8CF
:103838006490CDF8048008230396C9F800A0029389
:1038480020462946ABBE04460F4B10481C60621C3C
:1038580009BFD9F80040D9F800501C60254600235C
:103868004FF0FF31C1500833A02B084AFAD13B680A
:1038780013600023956014615360D360536104B0F2
:10388800BDE8F087D4110020DC110020E0110020F1
:1038980090520008D011002030B585B00624019060
:1038A8000291039201AD20462946ABBE0446631C33
:1038B80002D0204605B030BDFFF78EFF05B030BD01
:1038C80070B50E461546FFF76BFF044658B13146F2
:1038D80000682A46FFF7E0FF431C03D06368281AF4
:1038E8000344636070BD00F07DFA092303604FF064
:1038F800FF3070BDF0B583B00C461646FFF750FF99
:103908000546002839D0022E26D8012E21D0022EB5
:1039180011D06E462B680A278DE8180038463146C4
:10392800ABBE0646731C1ED03046002822DB6C60F6
:10393800204603B0F0BD02AE036846F8083D0C27E8
:1039480038463146ABBE0746791C0FD0384604448A
:10395800E0E74368E418DCD500F044FA1623036076
:103968004FF0FF30E5E7FFF737FFDEE7FFF734FFFB
:10397800421CECD14FF0FF30DBE700F033FA0923AB
:1039880003604FF0FF30D4E7FFF7B4BF30B585B020
:10399800052401900291039201AD20462946ABBE51
:1039A8000446631C02D0204605B030BDFFF714FF63
:1039B80005B030BD70B50E461546FFF7F1FE04465A
:1039C800E0B1314600682A46FFF7E0FF031E12DB2C
:1039D8006268E81A02449D42626000D070BD00F03F
:1039E80001FA13260546002430462146ABBE06469A
:1039F8002E60204670BD4FF0FF30EFE700F0F2F97F
:103A0800092303604FF0FF3070BD00BF30B583B0AD
:103A180002AC022544F8040D28462146ABBE0446F4
:103A2800631C02D0204603B030BDFFF7D5FE03B0BB
:103A380030BD00BF70B582B00446FFF7B1FE054641
:103A480018B3013C012C11D902AC2B6844F8043D91
:103A5800022630462146ABBE0446631C10D02046E1
:103A680010B94FF0FF332B6002B070BD0A4B9A6853
:103A78001B699A42E8D14FF0FF3303600020F3E757
:103A8800FFF7AAFE0028EFD1EBE700F0ABF9092316
:103A980003604FF0FF30E7E7E01100200120704796
:103AA80008B50A4B1A6801466AB1104642186946B9
:103AB8008A4201D81A6008BD00F094F90C2303600B
:103AC8004FF0FF3008BD02481860EFE7D81100201A
:103AD800E012002070B50C46FFF762FE0546B0B153
:103AE80063684FF4806243F400536360E2620C261B
:103AF80030462946ABBE05466A1C03D028462061DD
:103B0800002070BDFFF768FE431CF8D170BD00F0BF
:103B180069F9092303604FF0FF3070BD38B50C46D2
:103B28000546002120463C22FFF7FCFC284621469A
:103B3800BDE83840FFF7CEBF38B50D460446002132
:103B48003C222846FFF7EEFC2046002100F012F840
:103B5800431C04460BD06B6843F401436B60294651
:103B6800FFF7B8FF05462046FFF764FF2C462046BE
:103B780038BD00BF2DE9F047324E90B082468846E6
:103B8800002456F834506B1C4FEAC4070CD001349B
:103B9800142CF6D100F026F9182303604FF0FF35F6
:103BA800284610B0BDE8F08708F42063B3F5206F0D
:103BB8000DF104093BD040F20163C8F3004518F049
:103BC800020F08EA030318BF45F002050BB145F0E0
:103BD800040518F0080F18BF25F00405504618BF53
:103BE80045F00805CDF804A000F04EFD02950390BD
:103BF800012528464946ABBE0546002D09DB46F897
:103C0800345037442546002328467B6010B0BDE871
:103C1800F08700F0E7F813260446002730463946B7
:103C2800ABBE06462846266010B0BDE8F087494678
:103C38005046FFF781FF0130BDD000F0D3F81123C3
:103C48000360ADE7E01100200EB400B50199FFF75D
:103C580091FF5DF804EB03B0704700BF08B500F0B2
:103C6800C1F8582303604FF0FF3008BDF0B583B0AA
:103C78000E24009000F008FD01906D46204629466C
:103C8800ABBE0446631C02D0002003B0F0BD00F0B8
:103C9800A9F813260546002730463946ABBE064626
:103CA80020462E6003B0F0BDF0B505460C4638B18D
:103CB8001127002638463146ABBE07462F606E6096
:103CC80014B10023236063600020F0BD30B51024D8
:103CD800002520462946ABBE0446204630BD00BF1D
:103CE80070B504461026002530462946ABBE064668
:103CF8001CB126606560A560E560304670BD00BFF8
:103D080070B5FFF74DFD044690B1092528462146B8
:103D1800ABBE0446012C09D000F064F81326054612
:103D2800002430462146ABBE06462E60204670BDB4
:103D380000F058F809230360F8E700BF30B583B0F6
:103D4800D8B1009000F0A0FC122401906D462046E6
:103D58002946ABBE0446631C0BD0FF2C204606D870
:103D68002CB14000C0F3072301D0A342F9D103B01E
:103D780030BDFFF731FD0446EFE7012003B030BD49
:103D880030B585B00C46009000F07EFC01902046CE
:103D9800029400F079FC0F2403906D4620462946D2
:103DA800ABBE0446631C06D02046003018BF012075
:103DB800404205B030BDFFF70FFDF6E74FF0FF3189
:103DC80000F000B8062930B50CBF044D044D182486
:103DD80020462946ABBE0446204630BD23000200DB
:103DE80026000200014B1868704700BF90050020AC
:103DF8000020704700207047014900F001B900BF5A
:103E0800BD47000870B54B1E682505FB03F50E4637
:103E180005F1740100F042F9044640B100210C306C
:103E2800666005F168022160A060FFF77BFB204611
:103E380070BD00BF024B0349186800F0E1B800BF2D
:103E48008C520008BD4700082DE9F04F846B83B001
:103E58000746002C65D145683348F86304230321DD
:103E680007F53B72C7F8E412C7F8E822C7F8E04242
:103E780005F15C00AB812C606C60AC606C66EC8119
:103E88002C616C61AC6121460822FFF74BFBBE68D0
:103E9800DFF898B0DFF898A0DFF89890DFF89880FE
:103EA800ED6101230922C5F820B0C5F824A0C5F8A2
:103EB8002890C5F82C802146F381B2813460746063
:103EC800B460746634617461B461082206F15C0000
:103ED8000193FFF727FBFD68F66112200222C6F85E
:103EE80020B0C6F824A0C6F82890C6F82C80214631
:103EF800A881EA812C606C60AC606C662C616C6196
:103F0800AC6105F15C000822FFF70CFB019BED6139
:103F1800C5F820B0C5F824A0C5F82890C5F82C80AD
:103F2800BB6303B0BDE8F08F013E000809460008F6
:103F3800314600086946000889460008214B70B5DB
:103F48001D68AB6B0646002B2CD005F538756B68E1
:103F5800AC68013B05D521E0013B5A1C04F168041B
:103F68001CD0B4F90C20002AF6D1002501234FF605
:103F7800FF72E281A38165662560A56065602561A1
:103F88006561A561294604F15C000822FFF7CAFAB9
:103F9800256365636564A564204670BD2B682BB1F5
:103FA8001D46D4E72846FFF74FFFCEE730460421E9
:103FB800FFF728FF286008B10546C8E70C233360DF
:103FC80070BD00BF8C520008704700BF704700BF2B
:103FD800704700BF704700BF024B0349186800F0E4
:103FE8000FB800BF90050020F93D0008024B0349B7
:103FF800186800F005B800BF90050020FD3D0008D6
:104008002DE9F04110F5387788461AD000267D68EA
:10401800BC68013D0FD4A389012B05F1FF3506D9F2
:10402800B4F90E300133204601D0C04706436B1C5B
:1040380004F16804EFD13F68002FE8D13046BDE8AD
:10404800F0813E463046BDE8F08100BF2DE9F843D7
:1040580010F53876804689461BD000277568B46805
:10406800013D10D4A389012B05F1FF3507D9B4F917
:104078000E3001332146404601D0C84707436B1C28
:1040880004F16804EED13668002EE7D13846BDE861
:10409800F88337463846BDE8F88300BF2DE9F04F6E
:1040A80001F10B05162D83B0064627D935F0070513
:1040B80027D4A94225D8304600F08CFAB5F5FC7F04
:1040C80026D2C14F4FEAD50C07EBCC03DC689C42E3
:1040D80000F0D2816368E268A16823F003032344F7
:1040E80030465D68CA6045F0010591605D6000F08A
:1040F80073FA0834204603B0BDE8F08F1025A942B2
:10410800D9D900240C232046336003B0BDE8F08FD2
:104118005FEA552C00F08A80BCF1040F00F2608140
:104128004FEA951C0CF1380C4FEA4C01A64F07EBEF
:104138008101CC68A14205D10CE0002B7ADAE46851
:10414800A14207D0626822F00302531B0F2BF4DD53
:104158000CF1FF3C0CF1010C9B4B3C6903F1080E80
:10416800744500F07E81616821F003014A1B0F2A23
:1041780000F36481002AC3F814E0C3F810E06ADA97
:10418800B1F5007F80F03A81C90803EBC1004FEA1E
:10419800A1085A688168A1604FF0010909FA08F876
:1041A80048EA0202E0605A608460CC604FEAAC03DF
:1041B8000120984090425BD8024206D12CF0030CB3
:1041C800400002420CF1040CFAD007EBCC0844463C
:1041D800E146E3689C4207D145E1002A80F2568116
:1041E800DB689C4200F03F81596821F003014A1BBB
:1041F8000F2AF2DD1C46D3F80CC054F8088F591961
:1042080045F0010942F00105C3F804903046C8F8AA
:104218000CC0CCF8088079613961C1F80CE0C1F8AC
:1042280008E04D608A5000F0D7F963E77E214FF02F
:104238003F0C7BE72244E3685068A16840F0010521
:10424800CB6030469960556000F0C6F908342046C6
:1042580003B0BDE8F08F214430464B6843F00103BA
:104268004B6000F0B9F90834204603B0BDE8F08F80
:10427800BC68636823F00309A94504D3C5EB0903A7
:104288000F2B00F39180514B514A19681368013381
:1042980005EB010A04EB090B00F061810AF5805A6D
:1042A8000AF10F0A2AF47F6A2AF00F0A30465146AB
:1042B800019200F093F9B0F1FF3F8046019A00F0B7
:1042C8000081834500F2FA80DFF810C1DCF8003085
:1042D800C3455344CCF8003000F04A8112683C4989
:1042E80001321BBFCBEB080B5B44C1F80080CCF854
:1042F800003018F0070300F01381C3F10802C3F57A
:10430800805390440833C244CAF30B0ACAEB030A29
:1043180051463046CDF804C000F060F9431CDDF882
:1043280004C000F03581C8EB0002524442F001029B
:10433800DCF80030C7F808805344BC42C8F80420B1
:10434800CCF80030DFF894A015D0B9F10F0F40F287
:10435800EA806168A9F10C0222F0070201F0010E5F
:10436800A118052042EA0E0E0F2AC4F804E048609E
:10437800886000F21181174ABC6811688B4288BFB7
:104388001360154A11688B4288BF1360626822F077
:1043980003029542C5EB020301D80F2B04DC30461B
:1043A80000F01AF90024A5E6621943F0010345F06C
:1043B800010565603046BA60536000F00DF90834B5
:1043C800204603B0BDE8F08F940500208812002035
:1043D800A009002084120020801200208C120020E6
:1043E800BCF1140F61D9BCF1540F00F28F804FEA71
:1043F800153C0CF16E0C4FEA4C0197E64B0A042B66
:1044080058D9142B00F2AE8003F15B02500007EB81
:104418008000DFF8BC818368834200F08A805A6894
:1044280022F00302914202D29B689842F7D1D968E0
:104438007A68E160A3608C60DC60B7E6611942F0DD
:10444800010745F001056560304659611961C1F8F9
:104458000CE0C1F808E04F608A50083400F0BCF85E
:1044680048E65A68A2E609F1010919F0030F04F1B8
:1044780008047FF4AEAE2DE004F108036469A3429A
:1044880008BF0CF1020C3FF467AE23E619441C4642
:104498004868DB6854F8082F40F001054D60304645
:1044A800D3609A6000F098F824E60CF15B0C4FEAB0
:1044B8004C013BE68A0938325000A8E7BC423FF479
:1044C80003AFBC68626822F0030262E7D8F8008094
:1044D80098457BD11CF0030FA8F108030CF1FF3CB1
:1044E800F4D17B6823EA00037B60400098423FF6E2
:1044F800BFAE00283FF4BCAE0342CC467FF465AEA5
:10450800400003420CF1040CFAD05EE6BCF5AA7F29
:104518001AD84FEAD53C0CF1770C4FEA4C0105E666
:104528004FF48053EFE60123C8F8043044460022D4
:104538002FE791100120D8F8042000FA01F10A436E
:10454800C8F80420194674E740F254539C451BD818
:104558004FEA954C0CF17C0C4FEA4C01E6E50AF168
:10456800100AA3E6542B1FD80A0B6E3250004EE7F0
:10457800CBF30B0100297FF4B1AE0AEB0901BA684D
:1045880041F001015160F6E6FC214FF07E0CCDE5CB
:1045980001224FF0000ACBE604F10801304600F092
:1045A80031FADAF80030E6E6B3F5AA7F03D8CA0B89
:1045B800773250002BE740F25452934203D88A0CCA
:1045C8007C32500023E7FC207E2220E77B688CE7C2
:1045D80094050020704700BF704700BF38B5074CEE
:1045E8000023054608462360FFF75AFA431C00D00B
:1045F80038BD2368002BFBD02B6038BDDC120020AF
:1046080010B50C46B1F90E1000F0DEFA002803DBF5
:10461800236D0344236510BDA38923F48053A3812C
:1046280010BD00BF002070472DE9F0410C46898974
:104638001D46CB051646074606D5B4F90E100022CE
:10464800022300F0ADFAA18921F48051A1813846F6
:10465800B4F90E1032462B46BDE8F04100F044B8DC
:1046680010B50C46B1F90E1000F09AFAA389421C55
:104678000EBF23F4805343F480532065A38110BDFB
:10468800B1F90E1000F044B820F0030110F0030057
:10469800C0F1000051F8043B00F1040C4FEACC0CC7
:1046A8006FF000021CBF22FA0CF213434FF0010C0A
:1046B8004CEA0C2C4CEA0C4CA3EB0C0222EA030249
:1046C80012EACC1204BF51F8043B0430F4D013F0C2
:1046D800FF0F1FBF013013F47F4F013013F47F0F1A
:1046E80018BF0130704700BF70B5084C064600255A
:1046F800084611461A462560FFF75CF9431C00D0AE
:1047080070BD2368002BFBD0336070BDDC12002025
:1047180038B5074C0023054608462360FFF78AF999
:10472800431C00D038BD2368002BFBD02B6038BD5C
:10473800DC12002070B50C46054631B110B1836B10
:10474800002B2FD0B4F90C300BB9002070BD2846CF
:10475800214600F0E1F8E36A064633B12846E169EC
:1047680098470028B8BF4FF0FF36A3891B061CD412
:10477800216B41B104F14003994202D0284600F070
:1047880041F900232363616C21B1284600F03AF90E
:1047980000236364FFF718FC0023A381FFF716FCCE
:1047A800304670BDFFF750FBCCE72846216900F082
:1047B80029F9DDE7024B01461868FFF7BBBF00BFC8
:1047C800900500208B899AB22DE9F0410D4611071A
:1047D80080463CD46A6843F40063002AAB8159DD03
:1047E800AC6A002C4BD09BB203F48052002192B2E9
:1047F800D8F80060C8F80010002A4FD02A6D5F076B
:1048080005D569682B6B521A0BB1EB6BD21A40466F
:10481800E9690023A047441C4AD0AA892B692B6068
:1048280022F400639BB200226A60DA04AB814CD4A4
:10483800296BC8F8006011B305F14003994202D012
:10484800404600F0DFF800202863BDE8F0812E69BB
:10485800AEB12C682E6091070CBF6B690023A41BB6
:10486800AB600AE0324623466F6AE9694046B847BA
:104878000028C0EB0404064404DD002CF2DC002010
:10488800BDE8F081AB8943F04003AB814FF0FF30C6
:10489800BDE8F081EA6B002AA2DCF0E7012340467C
:1048A800E969A047431C02461ED0AB89AC6AA6E75B
:1048B800D8F800305BB9A9896B6021F400639BB21A
:1048C8002A69AB81DB042A60B2D52865B0E71D2BC5
:1048D80001D0162B19D1AA892B692B6022F400620A
:1048E8000023AA816B60A3E7D8F80030002BDCD046
:1048F8001D2B07D0162B05D0AB8943F04003AB81A5
:10490800BDE8F081C8F80060B9E7AB8943F040031F
:10491800AB81BDE8F08100BF10B5044682B008B194
:10492800836B53B1B1F90C0008B902B010BD204631
:1049380002B0BDE81040FFF745BF0191FFF784FAC8
:104948000199EFE720B1054B01461868FFF7E4BF6E
:10495800034B04491868FFF779BB00BF9005002096
:104968008C52000821490008F8B5234D0F4604462B
:10497800FFF730FEAB685E6826F00306F11B01F610
:10498800EF7121F47F6121F00F01A1F58057B7F590
:10499800805F07DB20460021FFF720FEAB68334429
:1049A800984204D02046FFF717FE0020F8BD2046A5
:1049B8007942FFF713FE01300DD0104BAA68196831
:1049C800F61B46F001062046C91B56601960FFF722
:1049D80003FE0120F8BD20460021FFF7FFFDAB686C
:1049E800C21A0F2ADEDD064D04492D6842F0010285
:1049F800401B5A600860D5E7940500208C120020FF
:104A0800A00900202DE9F0410D460646002955D0A1
:104A1800FFF7E0FD55F8041CDFF874C121F001032D
:104A2800A5F10804E218DCF808005768904227F05E
:104A3800030769D011F00101576032D00021D01965
:104A48004068C00706D43B44906800294ED0D2681D
:104A5800C260906043F001026260E350E1B9B3F5CF
:104A6800007F2DD35A0A042A6AD8980938304100A1
:104A78000CEB810C4649DCF80820624566D0516889
:104A880021F003018B4202D292689445F7D1D36892
:104A9800E360A2609C60D4603046BDE8F041FFF757
:104AA8009BBD55F8085C641B0CF10808A0684045DC
:104AB8002B4443D0E568C560A860C0E7BDE8F08135
:104AC800DB080CEBC3020125DCF804009168A16047
:104AD8009B1005FA03F31843E260CCF804009460D5
:104AE8003046CC60BDE8F041FFF776BD294DA842BD
:104AF800ADD143F00102CCF81440CCF81040E0608E
:104B0800A0606260E350C7E71F44CB0707D455F89D
:104B1800083CE41A1F44A268E368D3609A601E4BFD
:104B28001B6847F001029F426260CCF80840B3D38B
:104B38001A4B30461968FFF717FFADE701217EE7EA
:104B4800142A0CD802F15B00410091E74B688010F1
:104B5800012505FA00F003434B60134698E7542AF1
:104B680003D8180B6E30410082E7B2F5AA7F03D84C
:104B7800D80B773041007BE740F254518A4203D882
:104B8800980C7C30410073E7FC217E2070E700BF61
:104B9800940500209C0500209C0900208812002014
:104BA80070B5084C06460025084611461A46256089
:104BB800FEF7EAFE431C00D070BD2368002BFBD033
:104BC800336070BDDC12002070B5084C0646002525
:104BD800084611461A462560FEF772FE431C00D0AF
:104BE80070BD2368002BFBD0336070BDDC12002041
:104BF80038B50C460968054609B1FFF7F9FF28469C
:104C08002146BDE83840FFF7FDBE00BF224B1B68B8
:104C1800984270B5054632D0C26CAAB100231E4630
:104C280052F8231009B907E021460C682846FFF717
:104C3800E9FE002CF8D1EA6C0136202E3346EFD17C
:104C480011462846FFF7DEFE296C11B12846FFF70A
:104C5800D9FED5F8481159B105F5A676B14201D16A
:104C680006E021460C682846FFF7CCFEA642F8D19C
:104C7800696D11B12846FFF7C5FEAB6B03B970BD6E
:104C8800EB6B28469847D5F8E0120029F7D028465C
:104C9800BDE87040FFF7ACBF9005002000000000A1
:104CA8002DE9F04FB64B21F000469E4283B00446F2
:104CB8000D4689460FDDB3498E4200F3B38000F0FC
:104CC800AE80B9F1000F40F3EF8091A1D1E9000166
:104CD80003B0BDE8F08FAC4B9E4200F3BD80A3F15A
:104CE800DE739E4240F3A7804FF0FF3C22462B46DE
:104CF80020462946CDF804C0FEF7BCF802460B460C
:104D080082468B46FEF7B6F883A3D3E9002306460E
:104D18000F46FEF7AFF882A3D3E90023FDF7F8FEAC
:104D280032463B46FEF7A6F87FA3D3E90023FDF7FA
:104D3800EFFE32463B46FEF79DF87DA3D3E90023FC
:104D4800FDF7E6FE32463B46FEF794F87AA3D3E930
:104D58000023FDF7DDFE32463B46FEF78BF878A3CD
:104D6800D3E90023FDF7D4FE52465B46FEF782F8EE
:104D780075A3D3E9002382468B4630463946FEF7B1
:104D880079F873A3D3E90023FDF7C0FE32463B460A
:104D9800FEF770F870A3D3E90023FDF7B7FE32469B
:104DA8003B46FEF767F86EA3D3E90023FDF7AEFE96
:104DB80032463B46FEF75EF86BA3D3E90023FDF7C6
:104DC800A5FE32463B46FEF755F8DDF804C0BCF1B7
:104DD800FF3F02460B466BD0504659464FEACC0679
:104DE800FDF796FE22462B46FEF744F8674F684BC0
:104DF80037441E44D6E90023FDF788FE22462B4699
:104E0800FDF784FE02460B46D7E90001FDF77EFE5A
:104E1800B9F1000F0CDA01F10045294608E0002835
:104E28003FF44FAF2046294622462B46FDF770FE39
:104E380003B0BDE8F08F4EA3D3E90023FDF768FE69
:104E48000022544BFEF7A6FA00283FF44DAF204647
:104E5800294603B0BDE8F08F00F0CAF84E4B9E42D9
:104E680004460D4633DCA3F550239E4200F3A5808B
:104E780002460B46FDF74CFE0022464BFDF746FE68
:104E8800002206460F46204629464FF08043FDF78C
:104E98003FFE02460B4630463946FEF715F94FF0FD
:104EA800000C04460D4621E733A1D1E90001BFE714
:104EB80050465946FDF72CFE22462B46FDF7DAFFF1
:104EC80002460B4620462946FDF720FEB0E7334B45
:104ED8009E4267DC0022324BFDF718FE0022064690
:104EE8000F46204629462E4BFDF7C4FF0022294BCA
:104EF800FDF70EFE02460B4630463946FEF7E4F84B
:104F08004FF0020C04460D46F0E600BFAFF30080F8
:104F1800182D4454FB21F93F11DA22E33AAD903FB2
:104F2800EB0D76244B7BA93F513DD0A0660DB13FD8
:104F38006E204CC5CD45B73FFF8300922449C23F40
:104F48000D5555555555D53F2F6C6A2C44B4A2BF05
:104F58009AFDDE522DDEAD3F6D9A74AFF2B0B33FCD
:104F6800711623FEC671BC3FC4EB98999999C93F45
:104F78009C7500883CE4377E182D4454FB21F9BF0A
:104F8800FFFF0F440000F07FFFFFDB3FB85200082F
:104F9800985200080000F03FFFFFF23FFF7F0340F8
:104FA8000000F83F02460B4600200F49FEF78CF838
:104FB8004FF0030C04460D4698E600220B4BFDF714
:104FC800A5FD002206460F4620462946074BFDF759
:104FD8009FFD02460B4630463946FEF775F84FF0FE
:104FE800010C04460D4681E60000F0BF0000F03FCA
:104FF80021F00041704700BF2DE9F047DFF8A0A07D
:105008008AB004460D4600F04DF89AF90030013395
:1050180006460F460FD02046294600F003F950B146
:105028004FF000084FF0000942464B4620462946FB
:10503800FEF792F920B9304639460AB0BDE8F08744
:10504800164B9AF80060019301220023CDE904452C
:10505800CDE902450092089366B9CDE9068968460C
:1050680000F008F980B1089B9BB9DDE906010AB098
:10507800BDE8F0874046494642464B46FEF724F8CD
:10508800022ECDE90601EAD1FEF7ACFE212303602A
:10509800E9E7FEF7A7FE089B0360E6E7D852000899
:1050A800A409002021F0004C2DE9F8434FEA1C5CCC
:1050B800DFF86C814FEA0C5CC44506460F460B4688
:1050C800024600F08F8000296FDD0F1578D0A7F217
:1050D800FF37C3F31303F90743F4801360D4D10FE8
:1050E8004FF0000C01EB43037F1052006546162079
:1050F8004FF400116C189C424FEAD2764FEA4202F4
:1051080002DC1B1B65188C44013806EB43034FEA8D
:105118005101EFD1804620264FF0004109E023D00D
:10512800D40F013E4FEA510104EB43034FEA420218
:105138001ED0AB4201EB0804F1DD04F00049B9F1DF
:10514800004F04EB010809D0A9465B1B944288BFB5
:1051580003F1FF33121B08444D46E1E7B8F1000F95
:10516800F2DB05F10109F0E79442E6D91D46D7E7DD
:105178001A4304D0431C41D000F0010318444608E8
:105188004FEA6C031CF0010F03F17F5303F5001382
:1051980018BF46F0004603EB07513046BDE8F883D8
:1051A800D10F01EB4303520099E721F00043034379
:1051B80022D051BB0F46D30A153F5205002BFAD017
:1051C80013F480111DD15B00D80201F10101FAD559
:1051D800C1F10100C1F1200422FA04F42343074479
:1051E8008A4074E702460B46FDF744FE32463B46CA
:1051F800FDF78EFCBDE8F883BDE8F8830CF1010CDF
:10520800BEE7202401200021E6E702460B46FDF711
:105218007DFC02460B46FDF757FFBDE8F88300BF4B
:105228000000F07F31F0004310B408D00F4AA3F516
:10523800801494420AD804205DF8044B7047002873
:105248000CBF022003205DF8044B7047B3F5801FA4
:1052580001D20320F7E7064A934201D00020F2E783
:10526800D0F1010038BF0020EDE700BFFFFFDF7F6E
:105278000000F07F002070470A0D00002C0000009D
:1052880043000000680100203A7474000000000028
:10529800E2652F227F2B7A3C075C143326A6813CDB
:1052A800BDCBF07A8807703C075C143326A6913C86
:1052B8004FBB610567ACDD3F182D4454FB21E93F26
:1052C8009BF681D20B73EF3F182D4454FB21F93F15
:1052D800737172740000000000000000F8B500BF90
:1052E800F8BC08BC9E467047F8B500BFF8BC08BCBF
:0452F8009E46704717
:0852FC00E0AEFF7F010000009D
:08530400C1350008AD010008ED
:04530C00890100080B
:10531000000000000000000000000000000000008D
:10532000000000000000000000000000000000007D
:10533000000000000000000000000000000000006D
:10534000000000000000000000000000000000005D
:10535000000000000000000000000000000000004D
:10536000000000000000000000000000000000003D
:10537000000000000000000000000000000000002D
:10538000000000000000000000000000000000001D
:10539000000000000000000000000000000000000D
:1053A00000000000000000000000000000000000FD
:1053B00000000000000000000000000000000000ED
:1053C00000000000000000000000000000000000DD
:1053D00000000000000000000000000000000000CD
:1053E00000000000000000000000000000000000BD
:1053F00000000000000000000000000000000000AD
:10540000000000000000000000000000000000009C
:10541000000000000000000000000000000000008C
:105420000000000000000000000000000102030472
:1054300006070809007A030A000002402000000065
:105440000100000005000000000002408000000094
:1054500001000000070000000000024040000000C2
:10546000010000000600000000000000010203042B
:10547000010203040607080900000000540400208C
:10548000BC040020240500200000000000000000F3
:10549000000000000000000000000000000000000C
:1054A000000000000000000000000000885200081A
:1054B00000000000000000000000000000000000EC
:1054C00000000000000000000000000000000000DC
:1054D00000000000000000000000000000000000CC
:1054E00000000000000000000000000000000000BC
:1054F00000000000000000000000000000000000AC
:10550000000000000000000000000000000000009B
:10551000000000000000000000000000000000008B
:1055200001000000000000000E33CDAB34126DE628
:10553000ECDE05000B000000000000000000000091
:10554000000000000000000000000000000000005B
:10555000000000000000000000000000000000004B
:10556000000000000000000000000000000000003B
:10557000000000000000000000000000000000002B
:1058A00068010020000000000000000094050020B6
:1058B000940500209C0500209C050020A4050020E4
:1058C000A4050020AC050020AC050020B405002094
:1058D000B4050020BC050020BC050020C405002044
:1058E000C4050020CC050020CC050020D4050020F4
:1058F000D4050020DC050020DC050020E4050020A4
:10590000E4050020EC050020EC050020F405002053
:10591000F4050020FC050020FC0500200406002002
:10592000040600200C0600200C06002014060020AF
:10593000140600201C0600201C060020240600205F
:10594000240600202C0600202C060020340600200F
:10595000340600203C0600203C06002044060020BF
:10596000440600204C0600204C060020540600206F
:10597000540600205C0600205C060020640600201F
:10598000640600206C0600206C06002074060020CF
:10599000740600207C0600207C060020840600207F
:1059A000840600208C0600208C060020940600202F
:1059B000940600209C0600209C060020A4060020DF
:1059C000A4060020AC060020AC060020B40600208F
:1059D000B4060020BC060020BC060020C40600203F
:1059E000C4060020CC060020CC060020D4060020EF
:1059F000D4060020DC060020DC060020E40600209F
:105A0000E4060020EC060020EC060020F40600204E
:105A1000F4060020FC060020FC06002004070020FD
:105A2000040700200C0700200C07002014070020AA
:105A3000140700201C0700201C070020240700205A
:105A4000240700202C0700202C070020340700200A
:105A5000340700203C0700203C07002044070020BA
:105A6000440700204C0700204C070020540700206A
:105A7000540700205C0700205C070020640700201A
:105A8000640700206C0700206C07002074070020CA
:105A9000740700207C0700207C070020840700207A
:105AA000840700208C0700208C070020940700202A
:105AB000940700209C0700209C070020A4070020DA
:105AC000A4070020AC070020AC070020B40700208A
:105AD000B4070020BC070020BC070020C40700203A
:105AE000C4070020CC070020CC070020D4070020EA
:105AF000D4070020DC070020DC070020E40700209A
:105B0000E4070020EC070020EC070020F407002049
:105B1000F4070020FC070020FC07002004080020F8
:105B2000040800200C0800200C08002014080020A5
:105B3000140800201C0800201C0800202408002055
:105B4000240800202C0800202C0800203408002005
:105B5000340800203C0800203C08002044080020B5
:105B6000440800204C0800204C0800205408002065
:105B7000540800205C0800205C0800206408002015
:105B8000640800206C0800206C08002074080020C5
:105B9000740800207C0800207C0800208408002075
:105BA000840800208C0800208C0800209408002025
:105BB000940800209C0800209C080020A4080020D5
:105BC000A4080020AC080020AC080020B408002085
:105BD000B4080020BC080020BC080020C408002035
:105BE000C4080020CC080020CC080020D4080020E5
:105BF000D4080020DC080020DC080020E408002095
:105C0000E4080020EC080020EC080020F408002044
:105C1000F4080020FC080020FC08002004090020F3
:105C2000040900200C0900200C09002014090020A0
:105C3000140900201C0900201C0900202409002050
:105C4000240900202C0900202C0900203409002000
:105C5000340900203C0900203C09002044090020B0
:105C6000440900204C0900204C0900205409002060
:105C7000540900205C0900205C0900206409002010
:105C8000640900206C0900206C09002074090020C0
:105C9000740900207C0900207C0900208409002070
:105CA000840900208C0900208C09002000000200DB
:085CB000FFFFFFFF01000000EF
:045CB80000000000E8
:105CBC0000000000000000000000000000000000D8
:105CCC0000000000000000000000000000000000C8
:105CDC0000000000000000000000000000000000B8
:105CEC0000000000000000000000000000000000A8
:04000005080008A93E
:00000001FF
